{
  "_format": "hh-sol-artifact-1",
  "contractName": "ERC5564Registry",
  "sourceName": "contracts/ERC5564Registry.sol",
  "abi": [
    {
      "anonymous": false,
      "inputs": [
        {
          "indexed": true,
          "internalType": "address",
          "name": "registrant",
          "type": "address"
        },
        {
          "indexed": true,
          "internalType": "uint256",
          "name": "scheme",
          "type": "uint256"
        },
        {
          "indexed": false,
          "internalType": "bytes",
          "name": "stealthMetaAddress",
          "type": "bytes"
        }
      ],
      "name": "StealthMetaAddressSet",
      "type": "event"
    },
    {
      "inputs": [
        {
          "internalType": "uint256",
          "name": "scheme",
          "type": "uint256"
        },
        {
          "internalType": "bytes",
          "name": "stealthMetaAddress",
          "type": "bytes"
        }
      ],
      "name": "registerKeys",
      "outputs": [],
      "stateMutability": "nonpayable",
      "type": "function"
    },
    {
      "inputs": [
        {
          "internalType": "address",
          "name": "registrant",
          "type": "address"
        },
        {
          "internalType": "uint256",
          "name": "scheme",
          "type": "uint256"
        },
        {
          "internalType": "bytes",
          "name": "signature",
          "type": "bytes"
        },
        {
          "internalType": "bytes",
          "name": "stealthMetaAddress",
          "type": "bytes"
        }
      ],
      "name": "registerKeysOnBehalf",
      "outputs": [],
      "stateMutability": "nonpayable",
      "type": "function"
    },
    {
      "inputs": [
        {
          "internalType": "bytes",
          "name": "registrant",
          "type": "bytes"
        },
        {
          "internalType": "uint256",
          "name": "scheme",
          "type": "uint256"
        },
        {
          "internalType": "bytes",
          "name": "signature",
          "type": "bytes"
        },
        {
          "internalType": "bytes",
          "name": "stealthMetaAddress",
          "type": "bytes"
        }
      ],
      "name": "registerKeysOnBehalf",
      "outputs": [],
      "stateMutability": "nonpayable",
      "type": "function"
    },
    {
      "inputs": [
        {
          "internalType": "address",
          "name": "",
          "type": "address"
        },
        {
          "internalType": "uint256",
          "name": "",
          "type": "uint256"
        }
      ],
      "name": "stealthMetaAddressOf",
      "outputs": [
        {
          "internalType": "bytes",
          "name": "",
          "type": "bytes"
        }
      ],
      "stateMutability": "view",
      "type": "function"
    }
  ],
  "bytecode": "0x608060405234801561001057600080fd5b506109d7806100206000396000f3fe608060405234801561001057600080fd5b506004361061004c5760003560e01c8063042c7aa314610051578063428d3d0b1461006d5780637aa8b5ad14610089578063e8968bd5146100b9575b600080fd5b61006b600480360381019061006691906103ce565b6100d5565b005b61008760048036038101906100829190610488565b610185565b005b6100a3600480360381019061009e9190610527565b61018b565b6040516100b091906105e6565b60405180910390f35b6100d360048036038101906100ce9190610608565b610238565b005b806000803373ffffffffffffffffffffffffffffffffffffffff1673ffffffffffffffffffffffffffffffffffffffff1681526020019081526020016000206000848152602001908152602001600020908161013191906108cf565b50813373ffffffffffffffffffffffffffffffffffffffff167f4e739a47dfa4fd3cfa92f8fe760cebe125565927e5c422cb28e7aa388a067af98360405161017991906105e6565b60405180910390a35050565b50505050565b60006020528160005260406000206020528060005260406000206000915091505080546101b7906106f2565b80601f01602080910402602001604051908101604052809291908181526020018280546101e3906106f2565b80156102305780601f1061020557610100808354040283529160200191610230565b820191906000526020600020905b81548152906001019060200180831161021357829003601f168201915b505050505081565b50505050565b6000604051905090565b600080fd5b600080fd5b6000819050919050565b61026581610252565b811461027057600080fd5b50565b6000813590506102828161025c565b92915050565b600080fd5b600080fd5b6000601f19601f8301169050919050565b7f4e487b7100000000000000000000000000000000000000000000000000000000600052604160045260246000fd5b6102db82610292565b810181811067ffffffffffffffff821117156102fa576102f96102a3565b5b80604052505050565b600061030d61023e565b905061031982826102d2565b919050565b600067ffffffffffffffff821115610339576103386102a3565b5b61034282610292565b9050602081019050919050565b82818337600083830152505050565b600061037161036c8461031e565b610303565b90508281526020810184848401111561038d5761038c61028d565b5b61039884828561034f565b509392505050565b600082601f8301126103b5576103b4610288565b5b81356103c584826020860161035e565b91505092915050565b600080604083850312156103e5576103e4610248565b5b60006103f385828601610273565b925050602083013567ffffffffffffffff8111156104145761041361024d565b5b610420858286016103a0565b9150509250929050565b600073ffffffffffffffffffffffffffffffffffffffff82169050919050565b60006104558261042a565b9050919050565b6104658161044a565b811461047057600080fd5b50565b6000813590506104828161045c565b92915050565b600080600080608085870312156104a2576104a1610248565b5b60006104b087828801610473565b94505060206104c187828801610273565b935050604085013567ffffffffffffffff8111156104e2576104e161024d565b5b6104ee878288016103a0565b925050606085013567ffffffffffffffff81111561050f5761050e61024d565b5b61051b878288016103a0565b91505092959194509250565b6000806040838503121561053e5761053d610248565b5b600061054c85828601610473565b925050602061055d85828601610273565b9150509250929050565b600081519050919050565b600082825260208201905092915050565b60005b838110156105a1578082015181840152602081019050610586565b60008484015250505050565b60006105b882610567565b6105c28185610572565b93506105d2818560208601610583565b6105db81610292565b840191505092915050565b6000602082019050818103600083015261060081846105ad565b905092915050565b6000806000806080858703121561062257610621610248565b5b600085013567ffffffffffffffff8111156106405761063f61024d565b5b61064c878288016103a0565b945050602061065d87828801610273565b935050604085013567ffffffffffffffff81111561067e5761067d61024d565b5b61068a878288016103a0565b925050606085013567ffffffffffffffff8111156106ab576106aa61024d565b5b6106b7878288016103a0565b91505092959194509250565b7f4e487b7100000000000000000000000000000000000000000000000000000000600052602260045260246000fd5b6000600282049050600182168061070a57607f821691505b60208210810361071d5761071c6106c3565b5b50919050565b60008190508160005260206000209050919050565b60006020601f8301049050919050565b600082821b905092915050565b6000600883026107857fffffffffffffffffffffffffffffffffffffffffffffffffffffffffffffffff82610748565b61078f8683610748565b95508019841693508086168417925050509392505050565b6000819050919050565b60006107cc6107c76107c284610252565b6107a7565b610252565b9050919050565b6000819050919050565b6107e6836107b1565b6107fa6107f2826107d3565b848454610755565b825550505050565b600090565b61080f610802565b61081a8184846107dd565b505050565b5b8181101561083e57610833600082610807565b600181019050610820565b5050565b601f8211156108835761085481610723565b61085d84610738565b8101602085101561086c578190505b61088061087885610738565b83018261081f565b50505b505050565b600082821c905092915050565b60006108a660001984600802610888565b1980831691505092915050565b60006108bf8383610895565b9150826002028217905092915050565b6108d882610567565b67ffffffffffffffff8111156108f1576108f06102a3565b5b6108fb82546106f2565b610906828285610842565b600060209050601f8311600181146109395760008415610927578287015190505b61093185826108b3565b865550610999565b601f19841661094786610723565b60005b8281101561096f5784890151825560018201915060208501945060208101905061094a565b8683101561098c5784890151610988601f891682610895565b8355505b6001600288020188555050505b50505050505056fea26469706673582212208e249707c4c8c8e1ac22597ce0938645d796ad18a9f273bde7315bf78da0300564736f6c63430008180033",
  "linkReferences": {},
  "deployedLinkReferences": {}
}