{
  "_format": "hh-sol-artifact-1",
  "contractName": "ERC5564Announcer",
  "sourceName": "contracts/ERC5564Announcer.sol",
  "abi": [
    {
      "anonymous": false,
      "inputs": [
        {
          "indexed": true,
          "internalType": "uint256",
          "name": "schemeId",
          "type": "uint256"
        },
        {
          "indexed": true,
          "internalType": "address",
          "name": "stealthAddress",
          "type": "address"
        },
        {
          "indexed": true,
          "internalType": "address",
          "name": "caller",
          "type": "address"
        },
        {
          "indexed": false,
          "internalType": "bytes",
          "name": "ephemeralPubKey",
          "type": "bytes"
        },
        {
          "indexed": false,
          "internalType": "bytes",
          "name": "metadata",
          "type": "bytes"
        }
      ],
      "name": "Announcement",
      "type": "event"
    },
    {
      "inputs": [
        {
          "internalType": "uint256",
          "name": "schemeId",
          "type": "uint256"
        },
        {
          "internalType": "address",
          "name": "stealthAddress",
          "type": "address"
        },
        {
          "internalType": "bytes",
          "name": "ephemeralPubKey",
          "type": "bytes"
        },
        {
          "internalType": "bytes",
          "name": "metadata",
          "type": "bytes"
        }
      ],
      "name": "announce",
      "outputs": [],
      "stateMutability": "nonpayable",
      "type": "function"
    }
  ],
  "bytecode": "0x608060405234801561001057600080fd5b50610433806100206000396000f3fe608060405234801561001057600080fd5b506004361061002b5760003560e01c80634d1f958314610030575b600080fd5b61004a600480360381019061004591906102a8565b61004c565b005b3373ffffffffffffffffffffffffffffffffffffffff168373ffffffffffffffffffffffffffffffffffffffff16857f5f0eab8057630ba7676c49b4f21a0231414e79474595be8e4c432fbf6bf0f4e785856040516100ac9291906103c6565b60405180910390a450505050565b6000604051905090565b600080fd5b600080fd5b6000819050919050565b6100e1816100ce565b81146100ec57600080fd5b50565b6000813590506100fe816100d8565b92915050565b600073ffffffffffffffffffffffffffffffffffffffff82169050919050565b600061012f82610104565b9050919050565b61013f81610124565b811461014a57600080fd5b50565b60008135905061015c81610136565b92915050565b600080fd5b600080fd5b6000601f19601f8301169050919050565b7f4e487b7100000000000000000000000000000000000000000000000000000000600052604160045260246000fd5b6101b58261016c565b810181811067ffffffffffffffff821117156101d4576101d361017d565b5b80604052505050565b60006101e76100ba565b90506101f382826101ac565b919050565b600067ffffffffffffffff8211156102135761021261017d565b5b61021c8261016c565b9050602081019050919050565b82818337600083830152505050565b600061024b610246846101f8565b6101dd565b90508281526020810184848401111561026757610266610167565b5b610272848285610229565b509392505050565b600082601f83011261028f5761028e610162565b5b813561029f848260208601610238565b91505092915050565b600080600080608085870312156102c2576102c16100c4565b5b60006102d0878288016100ef565b94505060206102e18782880161014d565b935050604085013567ffffffffffffffff811115610302576103016100c9565b5b61030e8782880161027a565b925050606085013567ffffffffffffffff81111561032f5761032e6100c9565b5b61033b8782880161027a565b91505092959194509250565b600081519050919050565b600082825260208201905092915050565b60005b83811015610381578082015181840152602081019050610366565b60008484015250505050565b600061039882610347565b6103a28185610352565b93506103b2818560208601610363565b6103bb8161016c565b840191505092915050565b600060408201905081810360008301526103e0818561038d565b905081810360208301526103f4818461038d565b9050939250505056fea264697066735822122052f71b5410ee24256dea235e161fd405e472278d3d0ce93e4a27336e9645857364736f6c63430008180033",
  "linkReferences": {},
  "deployedLinkReferences": {}
}