{
  "_format": "hh-sol-artifact-1",
  "contractName": "Stealth",
  "sourceName": "contracts/Stealth.sol",
  "abi": [
    {
      "inputs": [
        {
          "internalType": "address payable",
          "name": "_announcer",
          "type": "address"
        }
      ],
      "stateMutability": "nonpayable",
      "type": "constructor"
    },
    {
      "inputs": [],
      "name": "InsufficientERC20Allowance",
      "type": "error"
    },
    {
      "inputs": [],
      "name": "NotERC721TokenOwner",
      "type": "error"
    },
    {
      "inputs": [],
      "name": "NothingToTransfer",
      "type": "error"
    },
    {
      "inputs": [],
      "name": "TransferFailure",
      "type": "error"
    },
    {
      "inputs": [
        {
          "internalType": "uint256",
          "name": "schemeId",
          "type": "uint256"
        },
        {
          "internalType": "address",
          "name": "recipient",
          "type": "address"
        },
        {
          "internalType": "bytes",
          "name": "ephemeralPubKey",
          "type": "bytes"
        },
        {
          "internalType": "uint8",
          "name": "viewTag",
          "type": "uint8"
        },
        {
          "components": [
            {
              "internalType": "bool",
              "name": "isERC721",
              "type": "bool"
            },
            {
              "internalType": "address",
              "name": "token",
              "type": "address"
            },
            {
              "internalType": "uint256",
              "name": "value",
              "type": "uint256"
            }
          ],
          "internalType": "struct TokenInfo[]",
          "name": "tokenInfo",
          "type": "tuple[]"
        }
      ],
      "name": "transferAndAnnounce",
      "outputs": [],
      "stateMutability": "payable",
      "type": "function"
    },
    {
      "inputs": [
        {
          "internalType": "uint256",
          "name": "schemeId",
          "type": "uint256"
        },
        {
          "internalType": "address",
          "name": "recipient",
          "type": "address"
        },
        {
          "internalType": "bytes",
          "name": "ephemeralPubKey",
          "type": "bytes"
        },
        {
          "internalType": "uint8",
          "name": "viewTag",
          "type": "uint8"
        }
      ],
      "name": "transferEthAndAnnounce",
      "outputs": [],
      "stateMutability": "payable",
      "type": "function"
    }
  ],
  "bytecode": "0x60806040523480156200001157600080fd5b506040516200157a3803806200157a8339818101604052810190620000379190620000e8565b806000806101000a81548173ffffffffffffffffffffffffffffffffffffffff021916908373ffffffffffffffffffffffffffffffffffffffff160217905550506200011a565b600080fd5b600073ffffffffffffffffffffffffffffffffffffffff82169050919050565b6000620000b08262000083565b9050919050565b620000c281620000a3565b8114620000ce57600080fd5b50565b600081519050620000e281620000b7565b92915050565b6000602082840312156200010157620001006200007e565b5b60006200011184828501620000d1565b91505092915050565b611450806200012a6000396000f3fe6080604052600436106100295760003560e01c806301473ff01461002e578063a647888e1461004a575b600080fd5b61004860048036038101906100439190610ddd565b610066565b005b610064600480360381019061005f9190610ec0565b61037e565b005b600034036100a0576040517f744cfd1200000000000000000000000000000000000000000000000000000000815260040160405180910390fd5b6000603967ffffffffffffffff8111156100bd576100bc610c79565b5b6040519080825280601f01601f1916602001820160405280156100ef5781602001600182028036833780820191505090505b5090506000808360f81b83828061010590610fa5565b93508151811061011857610117610fed565b5b60200101907effffffffffffffffffffffffffffffffffffffffffffffffffffffffffffff1916908160001a9053505b60188210156101b45760ee60f81b83828061016290610fa5565b93508151811061017557610174610fed565b5b60200101907effffffffffffffffffffffffffffffffffffffffffffffffffffffffffffff1916908160001a9053506101ad82610ba9565b9150610148565b60003460001b9050600092505b602083101561023f578083602081106101dd576101dc610fed565b5b1a60f81b8483806101ed90610fa5565b945081518110610200576101ff610fed565b5b60200101907effffffffffffffffffffffffffffffffffffffffffffffffffffffffffffff1916908160001a90535061023883610ba9565b92506101c1565b60008773ffffffffffffffffffffffffffffffffffffffff16346040516102659061104d565b60006040518083038185875af1925050503d80600081146102a2576040519150601f19603f3d011682016040523d82523d6000602084013e6102a7565b606091505b50509050806102e2576040517ff7e6817a00000000000000000000000000000000000000000000000000000000815260040160405180910390fd5b60008054906101000a900473ffffffffffffffffffffffffffffffffffffffff1673ffffffffffffffffffffffffffffffffffffffff16634d1f95838a8a8a896040518563ffffffff1660e01b815260040161034194939291906110ff565b600060405180830381600087803b15801561035b57600080fd5b505af115801561036f573d6000803e3d6000fd5b50505050505050505050505050565b6000828290501480156103915750600034145b156103c8576040517f744cfd1200000000000000000000000000000000000000000000000000000000815260040160405180910390fd5b60008034116103d85760006103db565b60015b60ff16838390506103ec9190611152565b60386103f89190611186565b60016104049190611152565b67ffffffffffffffff81111561041d5761041c610c79565b5b6040519080825280601f01601f19166020018201604052801561044f5781602001600182028036833780820191505090505b5090506000808560f81b83828061046590610fa5565b93508151811061047857610477610fed565b5b60200101907effffffffffffffffffffffffffffffffffffffffffffffffffffffffffffff1916908160001a905350600034111561064e575b601882101561051d5760ee60f81b8382806104cb90610fa5565b9350815181106104de576104dd610fed565b5b60200101907effffffffffffffffffffffffffffffffffffffffffffffffffffffffffffff1916908160001a90535061051682610ba9565b91506104b1565b60003460001b9050600092505b60208310156105a85780836020811061054657610545610fed565b5b1a60f81b84838061055690610fa5565b94508151811061056957610568610fed565b5b60200101907effffffffffffffffffffffffffffffffffffffffffffffffffffffffffffff1916908160001a9053506105a183610ba9565b925061052a565b60008973ffffffffffffffffffffffffffffffffffffffff16346040516105ce9061104d565b60006040518083038185875af1925050503d806000811461060b576040519150601f19603f3d011682016040523d82523d6000602084013e610610565b606091505b505090508061064b576040517ff7e6817a00000000000000000000000000000000000000000000000000000000815260040160405180910390fd5b50505b600091505b84849050821015610b0d5760006323b872dd60e01b86868581811061067b5761067a610fed565b5b905060600201602001602081019061069391906111c8565b6040516020016106a492919061128a565b604051602081830303815290604052905060005b601881101561073d578181815181106106d4576106d3610fed565b5b602001015160f81c60f81b8584806106eb90610fa5565b9550815181106106fe576106fd610fed565b5b60200101907effffffffffffffffffffffffffffffffffffffffffffffffffffffffffffff1916908160001a90535061073681610ba9565b90506106b8565b600087878681811061075257610751610fed565b5b9050606002016040013560001b9050600091505b60208210156107e45780826020811061078257610781610fed565b5b1a60f81b86858061079290610fa5565b9650815181106107a5576107a4610fed565b5b60200101907effffffffffffffffffffffffffffffffffffffffffffffffffffffffffffff1916908160001a9053506107dd82610ba9565b9150610766565b8787868181106107f7576107f6610fed565b5b905060600201600001602081019061080f91906112ee565b1561094357600088888781811061082957610828610fed565b5b905060600201602001602081019061084191906111c8565b73ffffffffffffffffffffffffffffffffffffffff16636352211e8a8a8981811061086f5761086e610fed565b5b905060600201604001356040518263ffffffff1660e01b8152600401610895919061131b565b602060405180830381865afa1580156108b2573d6000803e3d6000fd5b505050506040513d601f19601f820116820180604052508101906108d6919061134b565b90503373ffffffffffffffffffffffffffffffffffffffff168173ffffffffffffffffffffffffffffffffffffffff161461093d576040517f6aa4c7df00000000000000000000000000000000000000000000000000000000815260040160405180910390fd5b50610a45565b600088888781811061095857610957610fed565b5b905060600201602001602081019061097091906111c8565b73ffffffffffffffffffffffffffffffffffffffff1663dd62ed3e33306040518363ffffffff1660e01b81526004016109aa929190611378565b602060405180830381865afa1580156109c7573d6000803e3d6000fd5b505050506040513d601f19601f820116820180604052508101906109eb91906113b6565b9050888887818110610a00576109ff610fed565b5b90506060020160400135811015610a43576040517f0907727200000000000000000000000000000000000000000000000000000000815260040160405180910390fd5b505b878786818110610a5857610a57610fed565b5b9050606002016020016020810190610a7091906111c8565b73ffffffffffffffffffffffffffffffffffffffff166323b872dd338d8b8b8a818110610aa057610a9f610fed565b5b905060600201604001356040518463ffffffff1660e01b8152600401610ac8939291906113e3565b600060405180830381600087803b158015610ae257600080fd5b505af1158015610af6573d6000803e3d6000fd5b50505050505050610b0682610ba9565b9150610653565b60008054906101000a900473ffffffffffffffffffffffffffffffffffffffff1673ffffffffffffffffffffffffffffffffffffffff16634d1f95838a8a8a876040518563ffffffff1660e01b8152600401610b6c94939291906110ff565b600060405180830381600087803b158015610b8657600080fd5b505af1158015610b9a573d6000803e3d6000fd5b50505050505050505050505050565b6000816001019050919050565b6000604051905090565b600080fd5b600080fd5b6000819050919050565b610bdd81610bca565b8114610be857600080fd5b50565b600081359050610bfa81610bd4565b92915050565b600073ffffffffffffffffffffffffffffffffffffffff82169050919050565b6000610c2b82610c00565b9050919050565b610c3b81610c20565b8114610c4657600080fd5b50565b600081359050610c5881610c32565b92915050565b600080fd5b600080fd5b6000601f19601f8301169050919050565b7f4e487b7100000000000000000000000000000000000000000000000000000000600052604160045260246000fd5b610cb182610c68565b810181811067ffffffffffffffff82111715610cd057610ccf610c79565b5b80604052505050565b6000610ce3610bb6565b9050610cef8282610ca8565b919050565b600067ffffffffffffffff821115610d0f57610d0e610c79565b5b610d1882610c68565b9050602081019050919050565b82818337600083830152505050565b6000610d47610d4284610cf4565b610cd9565b905082815260208101848484011115610d6357610d62610c63565b5b610d6e848285610d25565b509392505050565b600082601f830112610d8b57610d8a610c5e565b5b8135610d9b848260208601610d34565b91505092915050565b600060ff82169050919050565b610dba81610da4565b8114610dc557600080fd5b50565b600081359050610dd781610db1565b92915050565b60008060008060808587031215610df757610df6610bc0565b5b6000610e0587828801610beb565b9450506020610e1687828801610c49565b935050604085013567ffffffffffffffff811115610e3757610e36610bc5565b5b610e4387828801610d76565b9250506060610e5487828801610dc8565b91505092959194509250565b600080fd5b600080fd5b60008083601f840112610e8057610e7f610c5e565b5b8235905067ffffffffffffffff811115610e9d57610e9c610e60565b5b602083019150836060820283011115610eb957610eb8610e65565b5b9250929050565b60008060008060008060a08789031215610edd57610edc610bc0565b5b6000610eeb89828a01610beb565b9650506020610efc89828a01610c49565b955050604087013567ffffffffffffffff811115610f1d57610f1c610bc5565b5b610f2989828a01610d76565b9450506060610f3a89828a01610dc8565b935050608087013567ffffffffffffffff811115610f5b57610f5a610bc5565b5b610f6789828a01610e6a565b92509250509295509295509295565b7f4e487b7100000000000000000000000000000000000000000000000000000000600052601160045260246000fd5b6000610fb082610bca565b91507fffffffffffffffffffffffffffffffffffffffffffffffffffffffffffffffff8203610fe257610fe1610f76565b5b600182019050919050565b7f4e487b7100000000000000000000000000000000000000000000000000000000600052603260045260246000fd5b600081905092915050565b50565b600061103760008361101c565b915061104282611027565b600082019050919050565b60006110588261102a565b9150819050919050565b61106b81610bca565b82525050565b61107a81610c20565b82525050565b600081519050919050565b600082825260208201905092915050565b60005b838110156110ba57808201518184015260208101905061109f565b60008484015250505050565b60006110d182611080565b6110db818561108b565b93506110eb81856020860161109c565b6110f481610c68565b840191505092915050565b60006080820190506111146000830187611062565b6111216020830186611071565b818103604083015261113381856110c6565b9050818103606083015261114781846110c6565b905095945050505050565b600061115d82610bca565b915061116883610bca565b92508282019050808211156111805761117f610f76565b5b92915050565b600061119182610bca565b915061119c83610bca565b92508282026111aa81610bca565b915082820484148315176111c1576111c0610f76565b5b5092915050565b6000602082840312156111de576111dd610bc0565b5b60006111ec84828501610c49565b91505092915050565b60007fffffffff0000000000000000000000000000000000000000000000000000000082169050919050565b6000819050919050565b61123c611237826111f5565b611221565b82525050565b60008160601b9050919050565b600061125a82611242565b9050919050565b600061126c8261124f565b9050919050565b61128461127f82610c20565b611261565b82525050565b6000611296828561122b565b6004820191506112a68284611273565b6014820191508190509392505050565b60008115159050919050565b6112cb816112b6565b81146112d657600080fd5b50565b6000813590506112e8816112c2565b92915050565b60006020828403121561130457611303610bc0565b5b6000611312848285016112d9565b91505092915050565b60006020820190506113306000830184611062565b92915050565b60008151905061134581610c32565b92915050565b60006020828403121561136157611360610bc0565b5b600061136f84828501611336565b91505092915050565b600060408201905061138d6000830185611071565b61139a6020830184611071565b9392505050565b6000815190506113b081610bd4565b92915050565b6000602082840312156113cc576113cb610bc0565b5b60006113da848285016113a1565b91505092915050565b60006060820190506113f86000830186611071565b6114056020830185611071565b6114126040830184611062565b94935050505056fea26469706673582212202aeacd66e9b18a12dcbe7b035bb4eb4c05f7eb47a18af6fd80f5fd92cde12abe64736f6c63430008180033",
  "linkReferences": {},
  "deployedLinkReferences": {}
}