{
  "contracts/ERC5564Registry.sol": {
    "ERC5564Registry": {
      "abi": [
        {
          "anonymous": false,
          "inputs": [
            {
              "indexed": true,
              "internalType": "address",
              "name": "registrant",
              "type": "address"
            },
            {
              "indexed": true,
              "internalType": "uint256",
              "name": "scheme",
              "type": "uint256"
            },
            {
              "indexed": false,
              "internalType": "bytes",
              "name": "stealthMetaAddress",
              "type": "bytes"
            }
          ],
          "name": "StealthMetaAddressSet",
          "type": "event"
        },
        {
          "inputs": [
            {
              "internalType": "uint256",
              "name": "scheme",
              "type": "uint256"
            },
            {
              "internalType": "bytes",
              "name": "stealthMetaAddress",
              "type": "bytes"
            }
          ],
          "name": "registerKeys",
          "outputs": [],
          "stateMutability": "nonpayable",
          "type": "function"
        },
        {
          "inputs": [
            {
              "internalType": "address",
              "name": "registrant",
              "type": "address"
            },
            {
              "internalType": "uint256",
              "name": "scheme",
              "type": "uint256"
            },
            {
              "internalType": "bytes",
              "name": "signature",
              "type": "bytes"
            },
            {
              "internalType": "bytes",
              "name": "stealthMetaAddress",
              "type": "bytes"
            }
          ],
          "name": "registerKeysOnBehalf",
          "outputs": [],
          "stateMutability": "nonpayable",
          "type": "function"
        },
        {
          "inputs": [
            {
              "internalType": "bytes",
              "name": "registrant",
              "type": "bytes"
            },
            {
              "internalType": "uint256",
              "name": "scheme",
              "type": "uint256"
            },
            {
              "internalType": "bytes",
              "name": "signature",
              "type": "bytes"
            },
            {
              "internalType": "bytes",
              "name": "stealthMetaAddress",
              "type": "bytes"
            }
          ],
          "name": "registerKeysOnBehalf",
          "outputs": [],
          "stateMutability": "nonpayable",
          "type": "function"
        },
        {
          "inputs": [
            {
              "internalType": "address",
              "name": "",
              "type": "address"
            },
            {
              "internalType": "uint256",
              "name": "",
              "type": "uint256"
            }
          ],
          "name": "stealthMetaAddressOf",
          "outputs": [
            {
              "internalType": "bytes",
              "name": "",
              "type": "bytes"
            }
          ],
          "stateMutability": "view",
          "type": "function"
        }
      ],
      "evm": {
        "bytecode": {
          "linkReferences": {},
          "object": "608060405234801561001057600080fd5b506109d7806100206000396000f3fe608060405234801561001057600080fd5b506004361061004c5760003560e01c8063042c7aa314610051578063428d3d0b1461006d5780637aa8b5ad14610089578063e8968bd5146100b9575b600080fd5b61006b600480360381019061006691906103ce565b6100d5565b005b61008760048036038101906100829190610488565b610185565b005b6100a3600480360381019061009e9190610527565b61018b565b6040516100b091906105e6565b60405180910390f35b6100d360048036038101906100ce9190610608565b610238565b005b806000803373ffffffffffffffffffffffffffffffffffffffff1673ffffffffffffffffffffffffffffffffffffffff1681526020019081526020016000206000848152602001908152602001600020908161013191906108cf565b50813373ffffffffffffffffffffffffffffffffffffffff167f4e739a47dfa4fd3cfa92f8fe760cebe125565927e5c422cb28e7aa388a067af98360405161017991906105e6565b60405180910390a35050565b50505050565b60006020528160005260406000206020528060005260406000206000915091505080546101b7906106f2565b80601f01602080910402602001604051908101604052809291908181526020018280546101e3906106f2565b80156102305780601f1061020557610100808354040283529160200191610230565b820191906000526020600020905b81548152906001019060200180831161021357829003601f168201915b505050505081565b50505050565b6000604051905090565b600080fd5b600080fd5b6000819050919050565b61026581610252565b811461027057600080fd5b50565b6000813590506102828161025c565b92915050565b600080fd5b600080fd5b6000601f19601f8301169050919050565b7f4e487b7100000000000000000000000000000000000000000000000000000000600052604160045260246000fd5b6102db82610292565b810181811067ffffffffffffffff821117156102fa576102f96102a3565b5b80604052505050565b600061030d61023e565b905061031982826102d2565b919050565b600067ffffffffffffffff821115610339576103386102a3565b5b61034282610292565b9050602081019050919050565b82818337600083830152505050565b600061037161036c8461031e565b610303565b90508281526020810184848401111561038d5761038c61028d565b5b61039884828561034f565b509392505050565b600082601f8301126103b5576103b4610288565b5b81356103c584826020860161035e565b91505092915050565b600080604083850312156103e5576103e4610248565b5b60006103f385828601610273565b925050602083013567ffffffffffffffff8111156104145761041361024d565b5b610420858286016103a0565b9150509250929050565b600073ffffffffffffffffffffffffffffffffffffffff82169050919050565b60006104558261042a565b9050919050565b6104658161044a565b811461047057600080fd5b50565b6000813590506104828161045c565b92915050565b600080600080608085870312156104a2576104a1610248565b5b60006104b087828801610473565b94505060206104c187828801610273565b935050604085013567ffffffffffffffff8111156104e2576104e161024d565b5b6104ee878288016103a0565b925050606085013567ffffffffffffffff81111561050f5761050e61024d565b5b61051b878288016103a0565b91505092959194509250565b6000806040838503121561053e5761053d610248565b5b600061054c85828601610473565b925050602061055d85828601610273565b9150509250929050565b600081519050919050565b600082825260208201905092915050565b60005b838110156105a1578082015181840152602081019050610586565b60008484015250505050565b60006105b882610567565b6105c28185610572565b93506105d2818560208601610583565b6105db81610292565b840191505092915050565b6000602082019050818103600083015261060081846105ad565b905092915050565b6000806000806080858703121561062257610621610248565b5b600085013567ffffffffffffffff8111156106405761063f61024d565b5b61064c878288016103a0565b945050602061065d87828801610273565b935050604085013567ffffffffffffffff81111561067e5761067d61024d565b5b61068a878288016103a0565b925050606085013567ffffffffffffffff8111156106ab576106aa61024d565b5b6106b7878288016103a0565b91505092959194509250565b7f4e487b7100000000000000000000000000000000000000000000000000000000600052602260045260246000fd5b6000600282049050600182168061070a57607f821691505b60208210810361071d5761071c6106c3565b5b50919050565b60008190508160005260206000209050919050565b60006020601f8301049050919050565b600082821b905092915050565b6000600883026107857fffffffffffffffffffffffffffffffffffffffffffffffffffffffffffffffff82610748565b61078f8683610748565b95508019841693508086168417925050509392505050565b6000819050919050565b60006107cc6107c76107c284610252565b6107a7565b610252565b9050919050565b6000819050919050565b6107e6836107b1565b6107fa6107f2826107d3565b848454610755565b825550505050565b600090565b61080f610802565b61081a8184846107dd565b505050565b5b8181101561083e57610833600082610807565b600181019050610820565b5050565b601f8211156108835761085481610723565b61085d84610738565b8101602085101561086c578190505b61088061087885610738565b83018261081f565b50505b505050565b600082821c905092915050565b60006108a660001984600802610888565b1980831691505092915050565b60006108bf8383610895565b9150826002028217905092915050565b6108d882610567565b67ffffffffffffffff8111156108f1576108f06102a3565b5b6108fb82546106f2565b610906828285610842565b600060209050601f8311600181146109395760008415610927578287015190505b61093185826108b3565b865550610999565b601f19841661094786610723565b60005b8281101561096f5784890151825560018201915060208501945060208101905061094a565b8683101561098c5784890151610988601f891682610895565b8355505b6001600288020188555050505b50505050505056fea26469706673582212208e249707c4c8c8e1ac22597ce0938645d796ad18a9f273bde7315bf78da0300564736f6c63430008180033",
          "opcodes": "PUSH1 0x80 PUSH1 0x40 MSTORE CALLVALUE DUP1 ISZERO PUSH2 0x10 JUMPI PUSH1 0x0 DUP1 REVERT JUMPDEST POP PUSH2 0x9D7 DUP1 PUSH2 0x20 PUSH1 0x0 CODECOPY PUSH1 0x0 RETURN INVALID PUSH1 0x80 PUSH1 0x40 MSTORE CALLVALUE DUP1 ISZERO PUSH2 0x10 JUMPI PUSH1 0x0 DUP1 REVERT JUMPDEST POP PUSH1 0x4 CALLDATASIZE LT PUSH2 0x4C JUMPI PUSH1 0x0 CALLDATALOAD PUSH1 0xE0 SHR DUP1 PUSH4 0x42C7AA3 EQ PUSH2 0x51 JUMPI DUP1 PUSH4 0x428D3D0B EQ PUSH2 0x6D JUMPI DUP1 PUSH4 0x7AA8B5AD EQ PUSH2 0x89 JUMPI DUP1 PUSH4 0xE8968BD5 EQ PUSH2 0xB9 JUMPI JUMPDEST PUSH1 0x0 DUP1 REVERT JUMPDEST PUSH2 0x6B PUSH1 0x4 DUP1 CALLDATASIZE SUB DUP2 ADD SWAP1 PUSH2 0x66 SWAP2 SWAP1 PUSH2 0x3CE JUMP JUMPDEST PUSH2 0xD5 JUMP JUMPDEST STOP JUMPDEST PUSH2 0x87 PUSH1 0x4 DUP1 CALLDATASIZE SUB DUP2 ADD SWAP1 PUSH2 0x82 SWAP2 SWAP1 PUSH2 0x488 JUMP JUMPDEST PUSH2 0x185 JUMP JUMPDEST STOP JUMPDEST PUSH2 0xA3 PUSH1 0x4 DUP1 CALLDATASIZE SUB DUP2 ADD SWAP1 PUSH2 0x9E SWAP2 SWAP1 PUSH2 0x527 JUMP JUMPDEST PUSH2 0x18B JUMP JUMPDEST PUSH1 0x40 MLOAD PUSH2 0xB0 SWAP2 SWAP1 PUSH2 0x5E6 JUMP JUMPDEST PUSH1 0x40 MLOAD DUP1 SWAP2 SUB SWAP1 RETURN JUMPDEST PUSH2 0xD3 PUSH1 0x4 DUP1 CALLDATASIZE SUB DUP2 ADD SWAP1 PUSH2 0xCE SWAP2 SWAP1 PUSH2 0x608 JUMP JUMPDEST PUSH2 0x238 JUMP JUMPDEST STOP JUMPDEST DUP1 PUSH1 0x0 DUP1 CALLER PUSH20 0xFFFFFFFFFFFFFFFFFFFFFFFFFFFFFFFFFFFFFFFF AND PUSH20 0xFFFFFFFFFFFFFFFFFFFFFFFFFFFFFFFFFFFFFFFF AND DUP2 MSTORE PUSH1 0x20 ADD SWAP1 DUP2 MSTORE PUSH1 0x20 ADD PUSH1 0x0 KECCAK256 PUSH1 0x0 DUP5 DUP2 MSTORE PUSH1 0x20 ADD SWAP1 DUP2 MSTORE PUSH1 0x20 ADD PUSH1 0x0 KECCAK256 SWAP1 DUP2 PUSH2 0x131 SWAP2 SWAP1 PUSH2 0x8CF JUMP JUMPDEST POP DUP2 CALLER PUSH20 0xFFFFFFFFFFFFFFFFFFFFFFFFFFFFFFFFFFFFFFFF AND PUSH32 0x4E739A47DFA4FD3CFA92F8FE760CEBE125565927E5C422CB28E7AA388A067AF9 DUP4 PUSH1 0x40 MLOAD PUSH2 0x179 SWAP2 SWAP1 PUSH2 0x5E6 JUMP JUMPDEST PUSH1 0x40 MLOAD DUP1 SWAP2 SUB SWAP1 LOG3 POP POP JUMP JUMPDEST POP POP POP POP JUMP JUMPDEST PUSH1 0x0 PUSH1 0x20 MSTORE DUP2 PUSH1 0x0 MSTORE PUSH1 0x40 PUSH1 0x0 KECCAK256 PUSH1 0x20 MSTORE DUP1 PUSH1 0x0 MSTORE PUSH1 0x40 PUSH1 0x0 KECCAK256 PUSH1 0x0 SWAP2 POP SWAP2 POP POP DUP1 SLOAD PUSH2 0x1B7 SWAP1 PUSH2 0x6F2 JUMP JUMPDEST DUP1 PUSH1 0x1F ADD PUSH1 0x20 DUP1 SWAP2 DIV MUL PUSH1 0x20 ADD PUSH1 0x40 MLOAD SWAP1 DUP2 ADD PUSH1 0x40 MSTORE DUP1 SWAP3 SWAP2 SWAP1 DUP2 DUP2 MSTORE PUSH1 0x20 ADD DUP3 DUP1 SLOAD PUSH2 0x1E3 SWAP1 PUSH2 0x6F2 JUMP JUMPDEST DUP1 ISZERO PUSH2 0x230 JUMPI DUP1 PUSH1 0x1F LT PUSH2 0x205 JUMPI PUSH2 0x100 DUP1 DUP4 SLOAD DIV MUL DUP4 MSTORE SWAP2 PUSH1 0x20 ADD SWAP2 PUSH2 0x230 JUMP JUMPDEST DUP3 ADD SWAP2 SWAP1 PUSH1 0x0 MSTORE PUSH1 0x20 PUSH1 0x0 KECCAK256 SWAP1 JUMPDEST DUP2 SLOAD DUP2 MSTORE SWAP1 PUSH1 0x1 ADD SWAP1 PUSH1 0x20 ADD DUP1 DUP4 GT PUSH2 0x213 JUMPI DUP3 SWAP1 SUB PUSH1 0x1F AND DUP3 ADD SWAP2 JUMPDEST POP POP POP POP POP DUP2 JUMP JUMPDEST POP POP POP POP JUMP JUMPDEST PUSH1 0x0 PUSH1 0x40 MLOAD SWAP1 POP SWAP1 JUMP JUMPDEST PUSH1 0x0 DUP1 REVERT JUMPDEST PUSH1 0x0 DUP1 REVERT JUMPDEST PUSH1 0x0 DUP2 SWAP1 POP SWAP2 SWAP1 POP JUMP JUMPDEST PUSH2 0x265 DUP2 PUSH2 0x252 JUMP JUMPDEST DUP2 EQ PUSH2 0x270 JUMPI PUSH1 0x0 DUP1 REVERT JUMPDEST POP JUMP JUMPDEST PUSH1 0x0 DUP2 CALLDATALOAD SWAP1 POP PUSH2 0x282 DUP2 PUSH2 0x25C JUMP JUMPDEST SWAP3 SWAP2 POP POP JUMP JUMPDEST PUSH1 0x0 DUP1 REVERT JUMPDEST PUSH1 0x0 DUP1 REVERT JUMPDEST PUSH1 0x0 PUSH1 0x1F NOT PUSH1 0x1F DUP4 ADD AND SWAP1 POP SWAP2 SWAP1 POP JUMP JUMPDEST PUSH32 0x4E487B7100000000000000000000000000000000000000000000000000000000 PUSH1 0x0 MSTORE PUSH1 0x41 PUSH1 0x4 MSTORE PUSH1 0x24 PUSH1 0x0 REVERT JUMPDEST PUSH2 0x2DB DUP3 PUSH2 0x292 JUMP JUMPDEST DUP2 ADD DUP2 DUP2 LT PUSH8 0xFFFFFFFFFFFFFFFF DUP3 GT OR ISZERO PUSH2 0x2FA JUMPI PUSH2 0x2F9 PUSH2 0x2A3 JUMP JUMPDEST JUMPDEST DUP1 PUSH1 0x40 MSTORE POP POP POP JUMP JUMPDEST PUSH1 0x0 PUSH2 0x30D PUSH2 0x23E JUMP JUMPDEST SWAP1 POP PUSH2 0x319 DUP3 DUP3 PUSH2 0x2D2 JUMP JUMPDEST SWAP2 SWAP1 POP JUMP JUMPDEST PUSH1 0x0 PUSH8 0xFFFFFFFFFFFFFFFF DUP3 GT ISZERO PUSH2 0x339 JUMPI PUSH2 0x338 PUSH2 0x2A3 JUMP JUMPDEST JUMPDEST PUSH2 0x342 DUP3 PUSH2 0x292 JUMP JUMPDEST SWAP1 POP PUSH1 0x20 DUP2 ADD SWAP1 POP SWAP2 SWAP1 POP JUMP JUMPDEST DUP3 DUP2 DUP4 CALLDATACOPY PUSH1 0x0 DUP4 DUP4 ADD MSTORE POP POP POP JUMP JUMPDEST PUSH1 0x0 PUSH2 0x371 PUSH2 0x36C DUP5 PUSH2 0x31E JUMP JUMPDEST PUSH2 0x303 JUMP JUMPDEST SWAP1 POP DUP3 DUP2 MSTORE PUSH1 0x20 DUP2 ADD DUP5 DUP5 DUP5 ADD GT ISZERO PUSH2 0x38D JUMPI PUSH2 0x38C PUSH2 0x28D JUMP JUMPDEST JUMPDEST PUSH2 0x398 DUP5 DUP3 DUP6 PUSH2 0x34F JUMP JUMPDEST POP SWAP4 SWAP3 POP POP POP JUMP JUMPDEST PUSH1 0x0 DUP3 PUSH1 0x1F DUP4 ADD SLT PUSH2 0x3B5 JUMPI PUSH2 0x3B4 PUSH2 0x288 JUMP JUMPDEST JUMPDEST DUP2 CALLDATALOAD PUSH2 0x3C5 DUP5 DUP3 PUSH1 0x20 DUP7 ADD PUSH2 0x35E JUMP JUMPDEST SWAP2 POP POP SWAP3 SWAP2 POP POP JUMP JUMPDEST PUSH1 0x0 DUP1 PUSH1 0x40 DUP4 DUP6 SUB SLT ISZERO PUSH2 0x3E5 JUMPI PUSH2 0x3E4 PUSH2 0x248 JUMP JUMPDEST JUMPDEST PUSH1 0x0 PUSH2 0x3F3 DUP6 DUP3 DUP7 ADD PUSH2 0x273 JUMP JUMPDEST SWAP3 POP POP PUSH1 0x20 DUP4 ADD CALLDATALOAD PUSH8 0xFFFFFFFFFFFFFFFF DUP2 GT ISZERO PUSH2 0x414 JUMPI PUSH2 0x413 PUSH2 0x24D JUMP JUMPDEST JUMPDEST PUSH2 0x420 DUP6 DUP3 DUP7 ADD PUSH2 0x3A0 JUMP JUMPDEST SWAP2 POP POP SWAP3 POP SWAP3 SWAP1 POP JUMP JUMPDEST PUSH1 0x0 PUSH20 0xFFFFFFFFFFFFFFFFFFFFFFFFFFFFFFFFFFFFFFFF DUP3 AND SWAP1 POP SWAP2 SWAP1 POP JUMP JUMPDEST PUSH1 0x0 PUSH2 0x455 DUP3 PUSH2 0x42A JUMP JUMPDEST SWAP1 POP SWAP2 SWAP1 POP JUMP JUMPDEST PUSH2 0x465 DUP2 PUSH2 0x44A JUMP JUMPDEST DUP2 EQ PUSH2 0x470 JUMPI PUSH1 0x0 DUP1 REVERT JUMPDEST POP JUMP JUMPDEST PUSH1 0x0 DUP2 CALLDATALOAD SWAP1 POP PUSH2 0x482 DUP2 PUSH2 0x45C JUMP JUMPDEST SWAP3 SWAP2 POP POP JUMP JUMPDEST PUSH1 0x0 DUP1 PUSH1 0x0 DUP1 PUSH1 0x80 DUP6 DUP8 SUB SLT ISZERO PUSH2 0x4A2 JUMPI PUSH2 0x4A1 PUSH2 0x248 JUMP JUMPDEST JUMPDEST PUSH1 0x0 PUSH2 0x4B0 DUP8 DUP3 DUP9 ADD PUSH2 0x473 JUMP JUMPDEST SWAP5 POP POP PUSH1 0x20 PUSH2 0x4C1 DUP8 DUP3 DUP9 ADD PUSH2 0x273 JUMP JUMPDEST SWAP4 POP POP PUSH1 0x40 DUP6 ADD CALLDATALOAD PUSH8 0xFFFFFFFFFFFFFFFF DUP2 GT ISZERO PUSH2 0x4E2 JUMPI PUSH2 0x4E1 PUSH2 0x24D JUMP JUMPDEST JUMPDEST PUSH2 0x4EE DUP8 DUP3 DUP9 ADD PUSH2 0x3A0 JUMP JUMPDEST SWAP3 POP POP PUSH1 0x60 DUP6 ADD CALLDATALOAD PUSH8 0xFFFFFFFFFFFFFFFF DUP2 GT ISZERO PUSH2 0x50F JUMPI PUSH2 0x50E PUSH2 0x24D JUMP JUMPDEST JUMPDEST PUSH2 0x51B DUP8 DUP3 DUP9 ADD PUSH2 0x3A0 JUMP JUMPDEST SWAP2 POP POP SWAP3 SWAP6 SWAP2 SWAP5 POP SWAP3 POP JUMP JUMPDEST PUSH1 0x0 DUP1 PUSH1 0x40 DUP4 DUP6 SUB SLT ISZERO PUSH2 0x53E JUMPI PUSH2 0x53D PUSH2 0x248 JUMP JUMPDEST JUMPDEST PUSH1 0x0 PUSH2 0x54C DUP6 DUP3 DUP7 ADD PUSH2 0x473 JUMP JUMPDEST SWAP3 POP POP PUSH1 0x20 PUSH2 0x55D DUP6 DUP3 DUP7 ADD PUSH2 0x273 JUMP JUMPDEST SWAP2 POP POP SWAP3 POP SWAP3 SWAP1 POP JUMP JUMPDEST PUSH1 0x0 DUP2 MLOAD SWAP1 POP SWAP2 SWAP1 POP JUMP JUMPDEST PUSH1 0x0 DUP3 DUP3 MSTORE PUSH1 0x20 DUP3 ADD SWAP1 POP SWAP3 SWAP2 POP POP JUMP JUMPDEST PUSH1 0x0 JUMPDEST DUP4 DUP2 LT ISZERO PUSH2 0x5A1 JUMPI DUP1 DUP3 ADD MLOAD DUP2 DUP5 ADD MSTORE PUSH1 0x20 DUP2 ADD SWAP1 POP PUSH2 0x586 JUMP JUMPDEST PUSH1 0x0 DUP5 DUP5 ADD MSTORE POP POP POP POP JUMP JUMPDEST PUSH1 0x0 PUSH2 0x5B8 DUP3 PUSH2 0x567 JUMP JUMPDEST PUSH2 0x5C2 DUP2 DUP6 PUSH2 0x572 JUMP JUMPDEST SWAP4 POP PUSH2 0x5D2 DUP2 DUP6 PUSH1 0x20 DUP7 ADD PUSH2 0x583 JUMP JUMPDEST PUSH2 0x5DB DUP2 PUSH2 0x292 JUMP JUMPDEST DUP5 ADD SWAP2 POP POP SWAP3 SWAP2 POP POP JUMP JUMPDEST PUSH1 0x0 PUSH1 0x20 DUP3 ADD SWAP1 POP DUP2 DUP2 SUB PUSH1 0x0 DUP4 ADD MSTORE PUSH2 0x600 DUP2 DUP5 PUSH2 0x5AD JUMP JUMPDEST SWAP1 POP SWAP3 SWAP2 POP POP JUMP JUMPDEST PUSH1 0x0 DUP1 PUSH1 0x0 DUP1 PUSH1 0x80 DUP6 DUP8 SUB SLT ISZERO PUSH2 0x622 JUMPI PUSH2 0x621 PUSH2 0x248 JUMP JUMPDEST JUMPDEST PUSH1 0x0 DUP6 ADD CALLDATALOAD PUSH8 0xFFFFFFFFFFFFFFFF DUP2 GT ISZERO PUSH2 0x640 JUMPI PUSH2 0x63F PUSH2 0x24D JUMP JUMPDEST JUMPDEST PUSH2 0x64C DUP8 DUP3 DUP9 ADD PUSH2 0x3A0 JUMP JUMPDEST SWAP5 POP POP PUSH1 0x20 PUSH2 0x65D DUP8 DUP3 DUP9 ADD PUSH2 0x273 JUMP JUMPDEST SWAP4 POP POP PUSH1 0x40 DUP6 ADD CALLDATALOAD PUSH8 0xFFFFFFFFFFFFFFFF DUP2 GT ISZERO PUSH2 0x67E JUMPI PUSH2 0x67D PUSH2 0x24D JUMP JUMPDEST JUMPDEST PUSH2 0x68A DUP8 DUP3 DUP9 ADD PUSH2 0x3A0 JUMP JUMPDEST SWAP3 POP POP PUSH1 0x60 DUP6 ADD CALLDATALOAD PUSH8 0xFFFFFFFFFFFFFFFF DUP2 GT ISZERO PUSH2 0x6AB JUMPI PUSH2 0x6AA PUSH2 0x24D JUMP JUMPDEST JUMPDEST PUSH2 0x6B7 DUP8 DUP3 DUP9 ADD PUSH2 0x3A0 JUMP JUMPDEST SWAP2 POP POP SWAP3 SWAP6 SWAP2 SWAP5 POP SWAP3 POP JUMP JUMPDEST PUSH32 0x4E487B7100000000000000000000000000000000000000000000000000000000 PUSH1 0x0 MSTORE PUSH1 0x22 PUSH1 0x4 MSTORE PUSH1 0x24 PUSH1 0x0 REVERT JUMPDEST PUSH1 0x0 PUSH1 0x2 DUP3 DIV SWAP1 POP PUSH1 0x1 DUP3 AND DUP1 PUSH2 0x70A JUMPI PUSH1 0x7F DUP3 AND SWAP2 POP JUMPDEST PUSH1 0x20 DUP3 LT DUP2 SUB PUSH2 0x71D JUMPI PUSH2 0x71C PUSH2 0x6C3 JUMP JUMPDEST JUMPDEST POP SWAP2 SWAP1 POP JUMP JUMPDEST PUSH1 0x0 DUP2 SWAP1 POP DUP2 PUSH1 0x0 MSTORE PUSH1 0x20 PUSH1 0x0 KECCAK256 SWAP1 POP SWAP2 SWAP1 POP JUMP JUMPDEST PUSH1 0x0 PUSH1 0x20 PUSH1 0x1F DUP4 ADD DIV SWAP1 POP SWAP2 SWAP1 POP JUMP JUMPDEST PUSH1 0x0 DUP3 DUP3 SHL SWAP1 POP SWAP3 SWAP2 POP POP JUMP JUMPDEST PUSH1 0x0 PUSH1 0x8 DUP4 MUL PUSH2 0x785 PUSH32 0xFFFFFFFFFFFFFFFFFFFFFFFFFFFFFFFFFFFFFFFFFFFFFFFFFFFFFFFFFFFFFFFF DUP3 PUSH2 0x748 JUMP JUMPDEST PUSH2 0x78F DUP7 DUP4 PUSH2 0x748 JUMP JUMPDEST SWAP6 POP DUP1 NOT DUP5 AND SWAP4 POP DUP1 DUP7 AND DUP5 OR SWAP3 POP POP POP SWAP4 SWAP3 POP POP POP JUMP JUMPDEST PUSH1 0x0 DUP2 SWAP1 POP SWAP2 SWAP1 POP JUMP JUMPDEST PUSH1 0x0 PUSH2 0x7CC PUSH2 0x7C7 PUSH2 0x7C2 DUP5 PUSH2 0x252 JUMP JUMPDEST PUSH2 0x7A7 JUMP JUMPDEST PUSH2 0x252 JUMP JUMPDEST SWAP1 POP SWAP2 SWAP1 POP JUMP JUMPDEST PUSH1 0x0 DUP2 SWAP1 POP SWAP2 SWAP1 POP JUMP JUMPDEST PUSH2 0x7E6 DUP4 PUSH2 0x7B1 JUMP JUMPDEST PUSH2 0x7FA PUSH2 0x7F2 DUP3 PUSH2 0x7D3 JUMP JUMPDEST DUP5 DUP5 SLOAD PUSH2 0x755 JUMP JUMPDEST DUP3 SSTORE POP POP POP POP JUMP JUMPDEST PUSH1 0x0 SWAP1 JUMP JUMPDEST PUSH2 0x80F PUSH2 0x802 JUMP JUMPDEST PUSH2 0x81A DUP2 DUP5 DUP5 PUSH2 0x7DD JUMP JUMPDEST POP POP POP JUMP JUMPDEST JUMPDEST DUP2 DUP2 LT ISZERO PUSH2 0x83E JUMPI PUSH2 0x833 PUSH1 0x0 DUP3 PUSH2 0x807 JUMP JUMPDEST PUSH1 0x1 DUP2 ADD SWAP1 POP PUSH2 0x820 JUMP JUMPDEST POP POP JUMP JUMPDEST PUSH1 0x1F DUP3 GT ISZERO PUSH2 0x883 JUMPI PUSH2 0x854 DUP2 PUSH2 0x723 JUMP JUMPDEST PUSH2 0x85D DUP5 PUSH2 0x738 JUMP JUMPDEST DUP2 ADD PUSH1 0x20 DUP6 LT ISZERO PUSH2 0x86C JUMPI DUP2 SWAP1 POP JUMPDEST PUSH2 0x880 PUSH2 0x878 DUP6 PUSH2 0x738 JUMP JUMPDEST DUP4 ADD DUP3 PUSH2 0x81F JUMP JUMPDEST POP POP JUMPDEST POP POP POP JUMP JUMPDEST PUSH1 0x0 DUP3 DUP3 SHR SWAP1 POP SWAP3 SWAP2 POP POP JUMP JUMPDEST PUSH1 0x0 PUSH2 0x8A6 PUSH1 0x0 NOT DUP5 PUSH1 0x8 MUL PUSH2 0x888 JUMP JUMPDEST NOT DUP1 DUP4 AND SWAP2 POP POP SWAP3 SWAP2 POP POP JUMP JUMPDEST PUSH1 0x0 PUSH2 0x8BF DUP4 DUP4 PUSH2 0x895 JUMP JUMPDEST SWAP2 POP DUP3 PUSH1 0x2 MUL DUP3 OR SWAP1 POP SWAP3 SWAP2 POP POP JUMP JUMPDEST PUSH2 0x8D8 DUP3 PUSH2 0x567 JUMP JUMPDEST PUSH8 0xFFFFFFFFFFFFFFFF DUP2 GT ISZERO PUSH2 0x8F1 JUMPI PUSH2 0x8F0 PUSH2 0x2A3 JUMP JUMPDEST JUMPDEST PUSH2 0x8FB DUP3 SLOAD PUSH2 0x6F2 JUMP JUMPDEST PUSH2 0x906 DUP3 DUP3 DUP6 PUSH2 0x842 JUMP JUMPDEST PUSH1 0x0 PUSH1 0x20 SWAP1 POP PUSH1 0x1F DUP4 GT PUSH1 0x1 DUP2 EQ PUSH2 0x939 JUMPI PUSH1 0x0 DUP5 ISZERO PUSH2 0x927 JUMPI DUP3 DUP8 ADD MLOAD SWAP1 POP JUMPDEST PUSH2 0x931 DUP6 DUP3 PUSH2 0x8B3 JUMP JUMPDEST DUP7 SSTORE POP PUSH2 0x999 JUMP JUMPDEST PUSH1 0x1F NOT DUP5 AND PUSH2 0x947 DUP7 PUSH2 0x723 JUMP JUMPDEST PUSH1 0x0 JUMPDEST DUP3 DUP2 LT ISZERO PUSH2 0x96F JUMPI DUP5 DUP10 ADD MLOAD DUP3 SSTORE PUSH1 0x1 DUP3 ADD SWAP2 POP PUSH1 0x20 DUP6 ADD SWAP5 POP PUSH1 0x20 DUP2 ADD SWAP1 POP PUSH2 0x94A JUMP JUMPDEST DUP7 DUP4 LT ISZERO PUSH2 0x98C JUMPI DUP5 DUP10 ADD MLOAD PUSH2 0x988 PUSH1 0x1F DUP10 AND DUP3 PUSH2 0x895 JUMP JUMPDEST DUP4 SSTORE POP JUMPDEST PUSH1 0x1 PUSH1 0x2 DUP9 MUL ADD DUP9 SSTORE POP POP POP JUMPDEST POP POP POP POP POP POP JUMP INVALID LOG2 PUSH5 0x6970667358 0x22 SLT KECCAK256 DUP15 0x24 SWAP8 SMOD 0xC4 0xC8 0xC8 0xE1 0xAC 0x22 MSIZE PUSH29 0xE0938645D796AD18A9F273BDE7315BF78DA0300564736F6C6343000818 STOP CALLER "
        },
        "methodIdentifiers": {
          "registerKeys(uint256,bytes)": "042c7aa3",
          "registerKeysOnBehalf(address,uint256,bytes,bytes)": "428d3d0b",
          "registerKeysOnBehalf(bytes,uint256,bytes,bytes)": "e8968bd5",
          "stealthMetaAddressOf(address,uint256)": "7aa8b5ad"
        }
      }
    }
  }
}